S012000053617074616D616E61332E7372656349
S11300000C942A000C9447000C9447000C9447006D
S11300100C9447000C9447000C9447000C94470040
S11300200C9447000C9447000C9447000C94E7018F
S11300300C9447000C9447000C9447000C94470020
S11300400C9447000C9447000C9447000C94470010
S11300500C94470011241FBECFE5D4E0DEBFCDBF12
S113006010E0A0E6B0E0E6E4FCE002C005900D92EA
S1130070AA36B107D9F720E0AAE6B0E001C01D9284
S1130080AB36B207E1F70E94A8000C9421060C9449
S11300900000CF93DF93CDB7DEB78AE390E0FC0195
S11300A0108286E290E026E230E0F90120812368A4
S11300B0FC01208387E290E027E230E0F90120810F
S11300C02164FC0120830000DF91CF910895CF9338
S11300D0DF9300D000D0CDB7DEB786E290E026E211
S11300E030E0F90120812064FC012083000086E2D5
S11300F090E0FC018081882F90E080749927892BFF
S1130100B1F784E290E0FC018081898385E290E08C
S1130110FC0180818A838A81882F90E09C838B8371
S11301208B819C81982F88279C838B838981882F3E
S113013090E02B813C81822B932B9C838B838B813E
S11301409C810F900F900F900F90DF91CF910895A5
S1130150CF93DF93CDB7DEB7C857D1090FB6F89464
S1130160DEBF0FBECDBF0E9463010E9449000E9402
S113017067009A83898329813A8188E893E1289FDB
S1130180A001299F500D389F500D11242FEF33E00B
S1130190CA01B9010E941A03CB01CC01A0E0B0E06E
S11301A08B839C83AD83BE838A818F9389818F9354
S11301B080E690E0892F8F9380E690E08F93CE01C4
S11301C04596292F2F938F930E9437030F900F90FA
S11301D00F900F900F900F90CE0145960E94B5019D
S11301E080E090E0AAE7B4E48F839887A987BA8770
S11301F026E636E646E655E46F81788589859A8554
S11302000E948502DC01CB018B879C87AD87BE876A
S113021020E030E040E85FE36B857C858D859E853A
S11302200E94FF0188232CF481E090E0988B8F8753
S11302303FC020E03FEF4FE757E46B857C858D8519
S11302409E850E94800218164CF520E030E040E2C2
S113025051E46F81788589859A850E948502DC0145
S1130260CB01BC01CD010E940402DC01CB01988BBF
S11302708F870FC080E791E09A8B898B89899A894F
S11302800197F1F79A8B898B8F8598890197988BC1
S11302908F878F859889892B69F714C06B857C8536
S11302A08D859E850E940402DC01CB01988B8F878B
S11302B08F8598899C8B8B8B8B899C890197F1F70F
S11302C09C8B8B8B54CFCF93DF9300D0CDB7DEB70D
S11302D087E090E09A83898381E390E021E330E032
S11302E0F90120812260FC01208380E490E02981CF
S11302F03A81232F3327FC01208389E290E029816E
S1130300FC0120838AE290E02AE230E0F9012081B6
S11303102869FC01208380E490E020E430E0F901C6
S113032020812668FC01208300000F900F90DF914C
S1130330CF910895CF93DF931F92CDB7DEB7898312
S113034000008BE290E0FC018081882F90E08072B5
S11303509927892BB1F38CE290E02981FC01208359
S113036000000F90DF91CF910895CF93DF9300D0D9
S113037000D000D0CDB7DEB79E838D838D819E8162
S11303800E942E039C838B831A8219820FC02D81B5
S11303903E8189819A81820F931FFC0180810E9492
S11303A09A0189819A8101969A83898329813A8164
S11303B08B819C812817390750F3000026960FB6CD
S11303C0F894DEBF0FBECDBFDF91CF9108951F9289
S11303D00F9200905F000F9211248F93CF93DF93BD
S11303E0CDB7DEB781E080936A000000DF91CF9142
S11303F08F910F9000925F000F901F9018950E94AC
S1130400330208F481E008950E945F0288F09F5748
S113041098F0B92F9927B751B0F0E1F0660F771F24
S1130420881F991F1AF0BA95C9F714C0B13091F01A
S11304300E947902B1E008950C947902672F782F15
S11304408827B85F39F0B93FCCF3869577956795DF
S1130450B395D9F73EF490958095709561957F4F4B
S11304608F4F9F4F0895990F0008550FAA0BE0E88E
S1130470FEEF16161706E807F907C0F01216130662
S1130480E407F50798F0621B730B840B950B39F4A2
S11304900A2661F0232B242B252B21F408950A2608
S11304A009F4A140A6958FEF811D811D089557FD84
S11304B09058440F551F59F05F3F71F04795880FCE
S11304C097FB991F61F09F3F79F087950895121665
S11304D013061406551FF2CF4695F1DF08C0161611
S11304E017061806991FF1CF8695710561050894C2
S11304F00895E894BB2766277727CB0197F90895D9
S11305000E94330208F48FEF08950E9498020C941D
S113051009030E94FB0238F00E94020320F0952395
S113052011F00C94F2020C94F80211240C947A0247
S11305300E94570270F3959FC1F3950F50E0551F29
S1130540629FF001729FBB27F00DB11D639FAA2724
S1130550F00DB11DAA1F649F6627B00DA11D661F73
S1130560829F2227B00DA11D621F739FB00DA11D94
S1130570621F839FA00D611D221F749F3327A00D4E
S1130580611D231F849F600D211D822F762F6A2FEA
S113059011249F5750409AF0F1F088234AF0EE0F4F
S11305A0FF1FBB1F661F771F881F91505040A9F77C
S11305B09E3F510580F00C94F2020C947A025F3F46
S11305C0E4F3983ED4F3869577956795B795F795B8
S11305D0E7959F5FC1F7FE2B880F911D9695879530
S11305E097F9089597F99F6780E870E060E00895AF
S11305F09FEF80EC089500240A9416161706180637
S11306000906089500240A94121613061406050612
S11306100895092E0394000C11F4882352F0BB0FA3
S113062040F4BF2B11F460FF04C06F5F7F4F8F4F06
S11306309F4F0895AA1BBB1B51E107C0AA1FBB1FF4
S1130640A617B70710F0A61BB70B881F991F5A955A
S1130650A9F780959095BC01CD010895FC01019006
S11306600020E9F7809590958E0F9F1F0895AEE0C6
S1130670B0E0EDE3F3E00C94F8050D891E8986E003
S11306808C831A8309838FEF9FE79E838D83AE014A
S1130690475E5F4F6F89788DCE0101960E945903A2
S11306A0EF81F885E00FF11F10822E96E4E00C94A0
S11306B01406ABE0B0E0EFE5F3E00C94EA056C015E
S11306C07B018A01FC0117821682838181FFCCC1E0
S11306D0CE0101963C01F6019381F70193FD8591CA
S11306E093FF81917F01882309F4BAC1853239F4DB
S11306F093FD859193FF81917F01853229F4B601A1
S113070090E00E945005E7CF912C212C312CFFE181
S1130710F315D8F08B3279F038F4803279F08332E3
S1130720A1F4232D20611DC08D3261F0803369F462
S1130730232D216016C0832D8260382EE32DE460C2
S11307403E2E2AC0F32DF8601DC037FC2DC020EDCD
S1130750280F2A3040F08E32B9F436FC81C1232DA3
S11307602064322E19C036FE06C08AE0989E200D01
S11307701124922E11C0EAE02E9E200D1124222E67
S1130780F32DF0623F2E08C08C3621F4832D80684F
S1130790382E02C0883641F4F70193FD859193FF0A
S11307A081917F018111B3CF982F9F7D9554933010
S11307B028F40C5F1F4F9FE399830DC0833631F0FB
S11307C0833771F0833509F059C021C0F801808165
S11307D089830E5F1F4F88248394912C530113C087
S11307E02801F2E04F0E511CF801A080B18036FEC2
S11307F003C0692D70E002C06FEF7FEFC5010E9456
S113080045054C018201F32DFF773F2E16C02801C8
S113081022E0420E511CF801A080B18036FE03C0D4
S1130820692D70E002C06FEF7FEFC5010E943A05A9
S11308304C01F32DF0683F2E820133FC1BC0822D46
S113084090E088169906B0F4B60180E290E00E9428
S113085050052A94F4CFF50137FC859137FE819138
S11308605F01B60190E00E94500521102A9421E016
S1130870821A91088114910471F7E8C0843611F04A
S1130880893641F5F80137FE07C0608171818281A4
S113089093810C5F1F4F08C060817181072E000C8B
S11308A0880B990B0E5F1F4FF32DFF763F2E97FF9A
S11308B009C090958095709561957F4F8F4F9F4F9C
S11308C0F0683F2E2AE030E0A3010E948C05882EB8
S11308D0861845C0853731F4232D2F7EB22E2AE0A9
S11308E030E025C0932D997FB92E8F36C1F018F4CE
S11308F0883579F0B5C0803719F0883721F0B0C059
S1130900E92FE061BE2EB4FE0DC0FB2DF460BF2EB6
S113091009C034FE0AC0292F2660B22E06C028E082
S113092030E005C020E130E002C020E132E0F8010F
S1130930B7FE07C060817181828193810C5F1F4F74
S113094006C06081718180E090E00E5F1F4FA301BB
S11309500E948C05882E8618FB2DFF773F2E36FECD
S11309600DC0232D2E7FA22E891458F434FE0BC003
S113097032FC09C0832D8E7EA82E05C0B82CA32C72
S113098003C0B82C01C0B92CA4FE0FC0FE01E80DB1
S1130990F11D8081803321F49A2D997EA92E09C0FE
S11309A0A2FE06C0B394B39404C08A2D867809F0DD
S11309B0B394A3FC11C0A0FE06C0B21488F4280CA2
S11309C0922C9B180EC0B21460F4B60180E290E041
S11309D00E945005B394F7CFB21418F42B1802C038
S11309E0982C212CA4FE10C0B60180E390E00E9454
S11309F05005A2FE17C0A1FC03C088E790E002C026
S1130A0088E590E0B6010CC08A2D867859F0A1FEE5
S1130A1002C08BE201C080E2A7FC8DE2B60190E047
S1130A200E945005891438F4B60180E390E00E94D6
S1130A3050059A94F7CF8A94F301E80DF11D808153
S1130A40B60190E00E9450058110F5CF222009F4F0
S1130A5042CEB60180E290E00E9450052A94F6CF7F
S1130A60F6018681978102C08FEF9FEF2B96E2E11A
S1130A700C940606FC010590615070400110D8F7F3
S1130A80809590958E0F9F1F0895FC0161507040D2
S1130A9001900110D8F7809590958E0F9F1F0895AF
S1130AA00F931F93CF93DF93FB01238121FD03C099
S1130AB08FEF9FEF2CC022FF16C0468157812481FF
S1130AC035814217530744F4A081B1819D012F5F02
S1130AD03F4F318320838C93268137812F5F3F4F93
S1130AE03783268314C08B01EC01FB010084F1855C
S1130AF0E02D0995892BE1F6D80116968D919C91EC
S1130B001797019617969C938E931697CE01DF91B3
S1130B10CF911F910F910895FA01AA27283051F11E
S1130B20203181F1E8946F936E7F6E5F7F4F8F4F1A
S1130B309F4FAF4FB1E03ED0B4E03CD0670F781F79
S1130B40891F9A1FA11D680F791F8A1F911DA11D5E
S1130B506A0F711D811D911DA11D20D009F4689497
S1130B603F912AE0269F11243019305D3193DEF63F
S1130B70CF010895462F4770405D4193B3E00FD0F5
S1130B80C9F7F6CF462F4F70405D4A3318F0495DE0
S1130B9031FD4052419302D0A9F7EACFB4E0A695C3
S1130BA09795879577956795BA95C9F700976105E5
S1130BB0710508959B01AC010A2E0694579547953B
S1130BC037952795BA95C9F7620F731F841F951F30
S1130BD0A01D08952F923F924F925F926F927F9241
S1130BE08F929F92AF92BF92CF92DF92EF92FF9239
S1130BF00F931F93CF93DF93CDB7DEB7CA1BDB0BE5
S1130C000FB6F894DEBF0FBECDBF09942A88398889
S1130C1048885F846E847D848C849B84AA84B98490
S1130C20C884DF80EE80FD800C811B81AA81B9819C
S1130C30CE0FD11D0FB6F894DEBF0FBECDBFED01B0
S1090C400895F894FFCFB3
S10D0C4676616C75652025640A00D0
S9030000FC
