:100000000C942A000C943C000C943C000C943C0092
:100010000C943C000C943C000C94BC000C943C00F0
:100020000C943C000C943C000C943C000C943C0060
:100030000C943C000C943C000C943C000C943C0050
:100040000C943C000C943C000C943C000C943C0040
:100050000C943C0011241FBECFE5D4E0DEBFCDBF21
:1000600020E0A0E6B0E001C01D92A236B207E1F7A1
:100070000E944F000C94E9000C940000CF93DF9392
:10008000CDB7DEB78AE390E02AE330E0F9012081C2
:100090002160FC0120830000DF91CF910895CF9370
:1000A000DF93CDB7DEB778940E943E000E945B00DC
:1000B0000E94AB00FFCFCF93DF9300D0CDB7DEB768
:1000C00080E890E79A8389838BE490E029813A81E4
:1000D000232F3327FC0120838AE490E02981FC014F
:1000E00020838FE490E0FC0110828EE490E02CE00D
:1000F000FC01208300000F900F90DF91CF910895B5
:10010000CF93DF93CDB7DEB780916000909161000F
:10011000892B71F08BE390E02BE330E0F901208133
:100120002160FC01208310926100109260000FC0DA
:100130008BE390E02BE330E0F90120812E7FFC017E
:10014000208381E090E09093610080936000000044
:10015000DF91CF910895CF93DF93CDB7DEB789E5D7
:1001600090E029E530E0F90120812061FC01208345
:100170000000DF91CF9108951F920F9200905F00D1
:100180000F9211242F933F934F935F936F937F931D
:100190008F939F93AF93BF93EF93FF93CF93DF938F
:1001A000CDB7DEB70E9480000000DF91CF91FF91B4
:1001B000EF91BF91AF919F918F917F916F915F91DF
:1001C0004F913F912F910F9000925F000F901F90E1
:0601D0001895F894FFCF22
:00000001FF
