:100000000C942A000C9434000C9434000C943400AA
:100010000C9434000C9434000C9434000C94340090
:100020000C9434000C9434000C9434000C94340080
:100030000C9434000C9434000C9434000C94340070
:100040000C9434000C9434000C9434000C94340060
:100050000C94340011241FBECFE5D4E0DEBFCDBF29
:100060000E9436000C9427020C940000CF93DF937B
:10007000CDB7DEB72E970FB6F894DEBF0FBECDBF5B
:100080008AE390E02FEFFC0120838BE390E021E0F6
:10009000FC0120830E94C20081E60E94F10080E002
:1000A00090E0AAE7B4E489839A83AB83BC8326E615
:1000B00036E646E655E469817A818B819C810E940F
:1000C0009201DC01CB018D839E83AF83B88720E052
:1000D00030E040E85FE36D817E818F8198850E94EA
:1000E0000C0188232CF481E090E09A8789873FC037
:1000F00020E03FEF4FE757E46D817E818F81988547
:100100000E948D0118164CF520E030E040E251E4E9
:1001100069817A818B819C810E949201DC01CB01F3
:10012000BC01CD010E941101DC01CB019A878987B6
:100130000FC080E791E09C878B878B859C8501971A
:10014000F1F79C878B8789859A8501979A8789879C
:1001500089859A85892B69F714C06D817E818F818D
:1001600098850E941101DC01CB019A8789878985D6
:100170009A859E878D878D859E850197F1F79E874D
:100180008D878ACFCF93DF9300D0CDB7DEB78FE5D1
:1001900090E09A83898381E390E022E0FC01208350
:1001A00080E490E0FC01108280E490E029813A81B3
:1001B000232F3327FC01208389E290E02981FC0171
:1001C00020838AE290E028E1FC01208380E490E033
:1001D00026E8FC01208300000F900F90DF91CF9163
:1001E0000895CF93DF931F92CDB7DEB789830000C8
:1001F0008BE290E0FC018081882F90E0807299274B
:10020000892BB1F38CE290E02981FC01208300006E
:100210000F90DF91CF9108950E94400108F481E092
:1002200008950E946C0188F09F5798F0B92F992784
:10023000B751B0F0E1F0660F771F881F991F1AF0D1
:10024000BA95C9F714C0B13091F00E948601B1E0AF
:1002500008950C948601672F782F8827B85F39F0AE
:10026000B93FCCF3869577956795B395D9F73EF46A
:1002700090958095709561957F4F8F4F9F4F089512
:10028000990F0008550FAA0BE0E8FEEF16161706A7
:10029000E807F907C0F012161306E407F50798F00F
:1002A000621B730B840B950B39F40A2661F0232B28
:1002B000242B252B21F408950A2609F4A140A695A4
:1002C0008FEF811D811D089557FD9058440F551FD4
:1002D00059F05F3F71F04795880F97FB991F61F0C8
:1002E0009F3F79F087950895121613061406551F3F
:1002F000F2CF4695F1DF08C0161617061806991FAB
:10030000F1CF86957105610508940895E894BB279F
:1003100066277727CB0197F908950E94400108F4DA
:100320008FEF08950E94A5010C9416020E94080206
:1003300038F00E940F0220F0952311F00C94FF0179
:100340000C94050211240C9487010E94640170F33F
:10035000959FC1F3950F50E0551F629FF001729F6A
:10036000BB27F00DB11D639FAA27F00DB11DAA1F79
:10037000649F6627B00DA11D661F829F2227B00DC6
:10038000A11D621F739FB00DA11D621F839FA00D51
:10039000611D221F749F3327A00D611D231F849FA1
:1003A000600D211D822F762F6A2F11249F575040F8
:1003B0009AF0F1F088234AF0EE0FFF1FBB1F661F73
:1003C000771F881F91505040A9F79E3F510580F03C
:1003D0000C94FF010C9487015F3FE4F3983ED4F343
:1003E000869577956795B795F795E7959F5FC1F7E0
:1003F000FE2B880F911D9695879597F9089597F98B
:100400009F6780E870E060E008959FEF80EC0895BA
:1004100000240A94161617061806090608950024E3
:100420000A9412161306140605060895092E03945D
:10043000000C11F4882352F0BB0F40F4BF2B11F4D1
:1004400060FF04C06F5F7F4F8F4F9F4F0895F894F8
:02045000FFCFDC
:00000001FF
