S01300005361706174616D616E61322E73726563E8
S11300000C942A000C9447000C9447000C9447006D
S11300100C9447000C9447000C94B0000C944700D7
S11300200C9447000C9447000C9447000C94470030
S11300300C9447000C9447000C9447000C94470020
S11300400C9447000C9447000C9447000C94470010
S11300500C94470011241FBECFE5D4E0DEBFCDBF12
S113006010E0A0E6B0E0EEEFF1E002C005900D92E2
S1130070AC36B107D9F720E0ACE6B0E001C01D9280
S1130080AE36B207E1F70E94CD000C94FD000C944B
S11300900000CF93DF93CDB7DEB78AE390E0FC0195
S11300A080818AE390E02FEFFC0120830000DF9140
S11300B0CF910895CF93DF931F92CDB7DEB7898395
S11300C08BE390E02981222F30E02E593F4FF90134
S11300D02081FC01208300000F90DF91CF910895CF
S11300E0CF93DF93CDB7DEB780916C0090916D0014
S11300F00E945A0080916C0090916D00019690933B
S11301006D0080936C0080916C0090916D000A9753
S113011021F410926D0010926C000000DF91CF91D9
S11301200895CF93DF93CDB7DEB778940E94D800BB
S11301300E94490089E590E029E530E0F901208139
S11301402061FC0120838091600090916100892BE3
S1130150D1F30E9470001092610010926000F3CFFE
S11301601F920F9200905F000F9211248F939F9320
S1130170CF93DF93CDB7DEB781E090E09093610039
S1130180809360000000DF91CF919F918F910F9039
S113019000925F000F901F901895CF93DF93CDB717
S11301A0DEB70E94910080E090E0DF91CF91089546
S11301B0CF93DF9300D0CDB7DEB780E890E79A8382
S11301C089838BE490E029813A81232F3327FC0132
S11301D020838AE490E02981FC0120838FE490E06D
S11301E0FC0110828EE490E02CE0FC0120830000EE
S11101F00F900F90DF91CF910895F894FFCFF8
S10F01FE0100C0F9A4B0999282F880902E
S9030000FC
