:100000000C942A000C943C000C943C000C943C0092
:100010000C943C000C943C000C943C000C943C0070
:100020000C943C000C943C000C943C000C943C0060
:100030000C943C000C943C000C943C000C943C0050
:100040000C943C000C943C000C943C000C943C0040
:100050000C943C0011241FBECFE5D4E0DEBFCDBF21
:1000600020E0A0E6B0E001C01D92A236B207E1F7A1
:100070000E9469000C9435020C940000CF93DF932A
:10008000CDB7DEB78091600090916100019771F467
:1000900088E390E028E330E0F90120812D7FFC0126
:1000A000208310926100109260000FC088E390E0FE
:1000B00028E330E0F90120812260FC01208381E007
:1000C00090E090936100809360000000DF91CF91F9
:1000D0000895CF93DF93CDB7DEB72E970FB6F89480
:1000E000DEBF0FBECDBF87E390E027E330E0F9012C
:1000F00020812E7FFC01208387E390E027E330E01E
:10010000F90120812260FC01208386E390E0FC015C
:100110008081882F90E081709927892BB1F780E04A
:1001200090E0A0EAB2E489839A83AB83BC8326E69D
:1001300036E646E655E469817A818B819C810E948E
:10014000A001DC01CB018D839E83AF83B88720E0C3
:1001500030E040E85FE36D817E818F8198850E9469
:100160001A0188232CF481E090E09A8789873FC0A8
:1001700020E03FEF4FE757E46D817E818F819885C6
:100180000E949B0118164CF520E030E040E251E45B
:1001900069817A818B819C810E94A001DC01CB0165
:1001A000BC01CD010E941F01DC01CB019A87898728
:1001B0000FC080E791E09C878B878B859C8501979A
:1001C000F1F79C878B8789859A8501979A8789871C
:1001D00089859A85892B69F714C06D817E818F810D
:1001E00098850E941F01DC01CB019A878987898548
:1001F0009A859E878D878D859E850197F1F79E87CD
:100200008D8786E390E0FC018081882F90E08170EB
:100210009927892B09F079CF000086E390E0FC0153
:100220008081882F90E081709927892BB1F30E94FB
:100230003E006BCF0E944E0108F481E008950E94B9
:100240007A0188F09F5798F0B92F9927B751B0F0ED
:10025000E1F0660F771F881F991F1AF0BA95C9F74A
:1002600014C0B13091F00E949401B1E008950C9453
:100270009401672F782F8827B85F39F0B93FCCF306
:10028000869577956795B395D9F73EF490958095C7
:10029000709561957F4F8F4F9F4F0895990F00087C
:1002A000550FAA0BE0E8FEEF16161706E807F90748
:1002B000C0F012161306E407F50798F0621B730BE3
:1002C000840B950B39F40A2661F0232B242B252B64
:1002D00021F408950A2609F4A140A6958FEF811D07
:1002E000811D089557FD9058440F551F59F05F3FE9
:1002F00071F04795880F97FB991F61F09F3F79F048
:1003000087950895121613061406551FF2CF4695C9
:10031000F1DF08C0161617061806991FF1CF86954B
:100320007105610508940895E894BB27662777272F
:10033000CB0197F908950E944E0108F48FEF0895BC
:100340000E94B3010C9424020E94160238F00E940D
:100350001D0220F0952311F00C940D020C94130251
:1003600011240C9495010E94720170F3959FC1F3C2
:10037000950F50E0551F629FF001729FBB27F00D53
:10038000B11D639FAA27F00DB11DAA1F649F6627A8
:10039000B00DA11D661F829F2227B00DA11D621FF7
:1003A000739FB00DA11D621F839FA00D611D221FB1
:1003B000749F3327A00D611D231F849F600D211D95
:1003C000822F762F6A2F11249F5750409AF0F1F018
:1003D00088234AF0EE0FFF1FBB1F661F771F881F81
:1003E00091505040A9F79E3F510580F00C940D02AA
:1003F0000C9495015F3FE4F3983ED4F3869577958E
:100400006795B795F795E7959F5FC1F7FE2B880F26
:10041000911D9695879597F9089597F99F6780E8BC
:1004200070E060E008959FEF80EC089500240A9446
:100430001616170618060906089500240A941216BF
:100440001306140605060895092E0394000C11F4F2
:10045000882352F0BB0F40F4BF2B11F460FF04C09F
:0E0460006F5F7F4F8F4F9F4F0895F894FFCF2F
:00000001FF
