:100000000C942A000C943C000C943C000C943C0092
:100010000C943C000C943C000C943C000C943C0070
:100020000C943C000C943C000C943C000C943C0060
:100030000C943C000C943C000C943C000C943C0050
:100040000C943C000C943C000C943C000C943C0040
:100050000C943C0011241FBECFE5D4E0DEBFCDBF21
:1000600020E0A0E6B0E001C01D92A136B207E1F7A2
:100070000E943E000C94CE020C940000CF93DF93BC
:10008000CDB7DEB76C970FB6F894DEBF0FBECDBF0D
:1000900087E390E0FC0110828AE390E02FEFFC01FF
:1000A00020838BE390E021E0FC01208386E390E055
:1000B000FC018081882F90E081709927892B09F0BD
:1000C000A3C080E090E0A0EAB2E48D839E83AF837A
:1000D000B88726E636E646E655E46D817E818F8157
:1000E00098850E943902DC01CB0189879A87AB870A
:1000F000BC8720E030E040E85FE369857A858B8546
:100100009C850E94B30188232CF481E090E09E87B7
:100110008D873FC020E03FEF4FE757E469857A8540
:100120008B859C850E94340218164CF520E030E047
:1001300040E251E46D817E818F8198850E94390271
:10014000DC01CB01BC01CD010E94B801DC01CB0177
:100150009E878D870FC080E791E0988B8F878F8572
:1001600098890197F1F7988B8F878D859E850197E8
:100170009E878D878D859E85892B69F714C069853B
:100180007A858B859C850E94B801DC01CB019E8716
:100190008D878D859E859A8B898B89899A89019710
:1001A000F1F79A8B898B86E390E0FC018081882FA0
:1001B00090E081709927892B39F5000086E390E063
:1001C000FC018081882F90E081709927892BB1F301
:1001D00080916000882321F487E08093600005C04F
:1001E000809160008150809360008BE390E02091CB
:1001F0006000422F50E021E030E002C0220F331FA8
:100200004A95E2F7FC01208386E390E0FC018081BF
:10021000882F90E082709927892B09F047CF80E0E2
:1002200090E0A0EAB2E489839A83AB83BC8326E69C
:1002300036E646E655E469817A818B819C810E948D
:100240003902DC01CB018B8B9C8BAD8BBE8B20E00C
:1002500030E040E85FE36B897C898D899E890E944C
:10026000B30188232CF481E090E0988F8F8B3FC0FE
:1002700020E03FEF4FE757E46B897C898D899E89A9
:100280000E94340218164CF520E030E040E251E4C0
:1002900069817A818B819C810E943902DC01CB01CA
:1002A000BC01CD010E94B801DC01CB01988F8F8B7E
:1002B0000FC080E791E09A8F898F898D9A8D019781
:1002C000F1F79A8F898F8F89988D0197988F8F8BEF
:1002D0008F89988D892B69F714C06B897C898D89EA
:1002E0009E890E94B801DC01CB01988F8F8B8F898A
:1002F000988D9C8F8B8F8B8D9C8D0197F1F79C8FA8
:100300008B8F86E390E0FC018081882F90E08270E3
:100310009927892B09F0CACE000086E390E0FC0102
:100320008081882F90E081709927892BB1F380918B
:100330006000873019F41092600005C08091600061
:100340008F5F809360008BE390E020916000422FEC
:1003500050E021E030E002C0220F331F4A95E2F75F
:10036000FC012083A3CE0E94E70108F481E00895F8
:100370000E94130288F09F5798F0B92F9927B75120
:10038000B0F0E1F0660F771F881F991F1AF0BA9539
:10039000C9F714C0B13091F00E942D02B1E0089568
:1003A0000C942D02672F782F8827B85F39F0B93F5A
:1003B000CCF3869577956795B395D9F73EF49095EC
:1003C0008095709561957F4F8F4F9F4F0895990F3E
:1003D0000008550FAA0BE0E8FEEF16161706E8070F
:1003E000F907C0F012161306E407F50798F0621B30
:1003F000730B840B950B39F40A2661F0232B242B05
:10040000252B21F408950A2609F4A140A6958FEF23
:10041000811D811D089557FD9058440F551F59F0B7
:100420005F3F71F04795880F97FB991F61F09F3FE1
:1004300079F087950895121613061406551FF2CF0A
:100440004695F1DF08C0161617061806991FF1CF5A
:1004500086957105610508940895E894BB27662781
:100460007727CB0197F908950E94E70108F48FEFF1
:1004700008950E944C020C94BD020E94AF0238F015
:100480000E94B60220F0952311F00C94A6020C9461
:10049000AC0211240C942E020E940B0270F3959F63
:1004A000C1F3950F50E0551F629FF001729FBB276B
:1004B000F00DB11D639FAA27F00DB11DAA1F649F07
:1004C0006627B00DA11D661F829F2227B00DA11DBA
:1004D000621F739FB00DA11D621F839FA00D611D40
:1004E000221F749F3327A00D611D231F849F600D61
:1004F000211D822F762F6A2F11249F5750409AF08A
:10050000F1F088234AF0EE0FFF1FBB1F661F771F15
:10051000881F91505040A9F79E3F510580F00C94E0
:10052000A6020C942E025F3FE4F3983ED4F3869526
:1005300077956795B795F795E7959F5FC1F7FE2B80
:10054000880F911D9695879597F9089597F99F675C
:1005500080E870E060E008959FEF80EC089500244B
:100560000A941616170618060906089500240A9418
:1005700012161306140605060895092E0394000C9E
:1005800011F4882352F0BB0F40F4BF2B11F460FF2D
:1005900004C06F5F7F4F8F4F9F4F0895F894FFCF38
:00000001FF
