S014000053617074616D616E61322D322E73726563E9
S11300000C942A000C9447000C9447000C9447006D
S11300100C9447000C9447000C9447000C94470040
S11300200C9447000C9447000C9447000C94C900AE
S11300300C9447000C9447000C9447000C94470020
S11300400C9447000C9447000C9447000C94470010
S11300500C94470011241FBECFE5D4E0DEBFCDBF12
S113006010E0A0E6B0E0E6ECF1E002C005900D92ED
S1130070A036B107D9F720E0A0E6B0E001C01D9298
S1130080A136B207E1F70E9459000C94E1000C94E8
S11300900000CF93DF931F92CDB7DEB70E94B30069
S11300A0898389810E94980000000F90DF91CF918D
S11300B00895CF93DF93CDB7DEB70E94690078949B
S11300C0809160008823E1F30E944900109260004F
S11300D0F7CFCF93DF9300D0CDB7DEB787E090E0C2
S11300E09A83898381E390E022E0FC01208380E409
S11300F090E0FC01108280E490E029813A81232F72
S11301003327FC01208389E290E02981FC012083CC
S11301108AE290E028E9FC01208380E490E026E86C
S1130120FC01208300000F900F90DF91CF91089580
S1130130CF93DF931F92CDB7DEB7898300008BE2A4
S113014090E0FC018081882F90E080729927892BB0
S1130150B1F38CE290E02981FC01208300000F9030
S1130160DF91CF910895CF93DF931F92CDB7DEB780
S113017000008BE290E0FC0180818823D4F78CE2BC
S113018090E0FC018081898389810F90DF91CF9178
S113019008951F920F9200905F000F9211248F9385
S11301A0CF93DF93CDB7DEB781E08093600000008A
S11301B0DF91CF918F910F9000925F000F901F906D
S10901C01895F894FFCF2E
S9030000FC
